:060000000A128A110E2E07
:100BEC004134543448340D3400341A3400347E0803
:100BFC008A007F088200FD250A128A118000840A6F
:100C0C0004087D0603190034FF0A0319FE0A012E9D
:100C1C008313DE30FD000630FE002D30FF00A030C7
:100C2C0084000A128A1101260A128A117030FD0002
:100C3C000530FE00F630FF00693084000A128A117C
:100C4C0001260A128A1183010A128A116B2E413471
:100C5C0054342B3443344D34473453343D342234E0
:100C6C003934343438343834393434343634363422
:100C7C003334383422340D34003441345434443455
:100C8C002034393434343834383439343434363418
:100C9C003634333438343B340D3400344834453432
:100CAC004C344C344F34203457344F3452344C344D
:100CBC0044340034413454342B3443344D344734AD
:100CCC0046343D3431340D34003453308400D33049
:100CDC00F0000408F1000B30F2007008840083135C
:100CEC000008F300F00A7108840073088000F10A10
:100CFC00F20B732E20308400A030F0000408F100B9
:100D0C001630F2007008840083130008F300F00A18
:100D1C007108840073088000F10AF20B882E4730AA
:100D2C008400C730F0000408F1000C30F2007008A9
:100D3C00840083130008F300F00A71088400730820
:100D4C008000F10AF20B9D2E831203136F08E6014B
:100D5C00E6076E08E501E50736308400B630F00092
:100D6C000408F1001130F2007008840083130008AD
:100D7C00F300F00A7108840073088000F10AF20B8A
:100D8C00BA2E6030840069088000840A6A088000EA
:100D9C00840A6B088000840A6C088000840A6D0841
:100DAC0080000030DE000030DF00FF3083160313BC
:100DBC0088002430980090308312031398008130FF
:100DCC00831603139900EA2E83120818EE2EEF2EC9
:100DDC00A22F0030E7000030E800072F6708533ED1
:100DEC008400831300089900FB2E0C1EFE2EFF2E90
:100DFC00FB2E0C120130E7070318E80A0030E80755
:100E0C00072F6708533E840083138008031D0F2FA0
:100E1C00102FF42E112F0D30F200A330F100BD3045
:100E2C00F000F00B172FF10B172FF20B172F64009C
:100E3C00003083120313E7000030E800382F6708F6
:100E4C00203E84008313000899002C2F0C1E2F2F9A
:100E5C00302F2C2F0C120130E7070318E80A003052
:100E6C00E807382F6708203E840083138008031D91
:100E7C00402F412F252F422F0D30F200A330F100CF
:100E8C00BD30F000F00B482FF10B482FF20B482F20
:100E9C006400003083120313E7000030E800692F70
:100EAC006708473E84008313000899005D2F0C1ED1
:100EBC00602F612F5D2F0C120130E7070318E80A31
:100ECC000030E807692F6708473E840083138008C9
:100EDC00031D712F722F562F732F0030E700003037
:100EEC00E8008A2F6708653E8400000899007E2F71
:100EFC000C1E812F822F7E2F0C120130E707031856
:100F0C00E80A0030E8078A2F6708653E84008313DF
:100F1C008008031D922F932F782F942F0D3099005A
:100F2C00972F0C1E9A2F9B2F972F0C129D2F081C5E
:100F3C00A02FA12F9D2FA22F8818A52FA62FCE2F23
:100F4C000030E7000030E800BE2F6708363E840012
:100F5C00831300089900B22F0C1EB52FB62FB22F99
:100F6C000C120130E7070318E80A0030E807BE2F1F
:100F7C006708363E840083138008031DC62FC72FD5
:100F8C00AB2FC92FC92F881CCC2FCD2FC92FCE2FFB
:100F9C000819D12FD22FEA2E0030E7000030E800DC
:100FAC00EA2F6708603E8400831300089900DE2F47
:100FBC000C1EE12FE22FDE2F0C120130E707031875
:100FCC00E80A0030E807EA2F6708603E84008313C4
:100FDC008008031DF22FF32FD72FF52FF52F081DA7
:100FEC00F82FF92FF52FEA2EEA2EEA2EEA2E0A1206
:040FFC008A1100282E
:02400E003A3F37
:00000001FF
